:100000000C9462000C948A000C948A000C948A0070
:100010000C948A000C948A000C948A000C948A0038
:100020000C948A000C948A000C948A000C948A0028
:100030000C948A000C948A000C948A000C948A0018
:100040000C94B0040C948A000C947E040C94580414
:100050000C948A000C948A000C948A000C948A00F8
:100060000C948A000C948A000000000024002700F1
:100070002A0000000000250028002B0000000008D6
:10008000000201000003040700000000000000005F
:1000900000000000230026002900040404040404D6
:1000A0000404020202020202030303030303010227
:1000B00004081020408001020408102001020408F6
:1000C00010203F0511241FBECFEFD8E0DEBFCDBF0B
:1000D00011E0A0E0B1E0E8EEF4E102C005900D927D
:1000E000A037B107D9F722E0A0E7B1E001C01D9227
:1000F000A234B207E1F710E0C2E6D0E004C02197D5
:10010000FE010E942B08C136D107C9F70E948A055B
:100110000C94720A0C940000DC01ED91FC910190AA
:10012000F081E02D0994CF92DF92EF92FF920F932E
:100130001F93CF93DF936C017A018B01C0E0D0E075
:10014000CE15DF0589F0D8016D918D01D601ED91B5
:10015000FC910190F081E02DC6010995892B11F4E5
:100160007E0102C02196ECCFC701DF91CF911F9194
:100170000F91FF90EF90DF90CF900895FC01918D4B
:10018000828D981761F0828DDF01A80FB11D5D96F9
:100190008C91928D9F5F9F73928F90E008958FEF67
:1001A0009FEF0895FC01918D828D981731F0828D1B
:1001B000E80FF11D858D90E008958FEF9FEF089572
:1001C000FC01918D228D892F90E0805C9F4F821BD6
:1001D00091098F73992708958DE891E00E94E000BE
:1001E00021E0892B09F420E0822F0895FC01848D01
:1001F000DF01A80FB11DA35ABF4F2C91848D90E051
:1002000001968F739927848FA689B7892C93A0892B
:10021000B1898C9180648C93938D848D981306C0E2
:100220000288F389E02D80818F7D80830895EF928D
:10023000FF920F931F93CF93DF93EC0181E0888FA0
:100240009B8D8C8D981305C0E889F989808185FD87
:1002500024C0F62E0B8D10E00F5F1F4F0F73112778
:10026000E02E8C8DE8120CC00FB607FCFACFE8899F
:10027000F989808185FFF5CFCE010E94F600F1CF8C
:100280008B8DFE01E80FF11DE35AFF4FF0820B8FBB
:10029000EA89FB898081806207C0EE89FF896083DB
:1002A000E889F98980818064808381E090E0DF9132
:1002B000CF911F910F91FF90EF900895CF93DF930F
:1002C000EC01888D8823C9F0EA89FB89808185FD4E
:1002D00005C0A889B9898C9186FD0FC00FB607FCAF
:1002E000F5CF808185FFF2CFA889B9898C9185FFF0
:1002F000EDCFCE010E94F600E7CFDF91CF910895B8
:1003000080E090E0892B29F00E94EC0081110C9490
:100310000000089590E0FC01E458FF4F3491FC0187
:10032000E255FF4F2491FC01E656FF4FE491EE2386
:1003300009F43BC0332339F1333091F038F43130D4
:10034000A9F0323001F584B58F7D12C0373091F0BD
:100350003830A1F03430B9F4809180008F7D03C033
:10036000809180008F77809380000DC084B58F7757
:1003700084BD09C08091B0008F7703C08091B00028
:100380008F7D8093B000F0E0EE0FFF1FEE58FF4F1F
:10039000A591B4918FB7F894EC91611103C02095A9
:1003A0002E2301C02E2B2C938FBF0895CF93DF9364
:1003B00090E0FC01E255FF4F2491FC01E656FF4F0F
:1003C0008491882361F190E0880F991FFC01E8591E
:1003D000FF4FC591D491FC01EE58FF4FA591B49108
:1003E000611109C09FB7F894888120958223888382
:1003F000EC912E230BC0623061F49FB7F8943881E2
:10040000822F809583238883EC912E2B2C939FBF82
:1004100006C08FB7F894E8812E2B28838FBFDF9119
:10042000CF9108953FB7F89480917501909176012E
:10043000A0917701B091780126B5A89B05C02F3F08
:1004400019F00196A11DB11D3FBFBA2FA92F982FFA
:100450008827820F911DA11DB11DBC01CD0142E075
:10046000660F771F881F991F4A95D1F708958F92BD
:100470009F92AF92BF92CF92DF92EF92FF926B0169
:100480007C010E9412024B015C01C114D104E10401
:10049000F104F1F00E941202DC01CB0188199909E4
:1004A000AA09BB09883E9340A105B10570F321E07C
:1004B000C21AD108E108F10888EE880E83E0981E80
:1004C000A11CB11CC114D104E104F10419F7DDCF62
:1004D000FF90EF90DF90CF90BF90AF909F908F9064
:1004E0000895CF93DF93EC0160E08E810E948A0132
:1004F00061E08E810E948A0160E08E810E948A0103
:100500008BE891E00197F1F7DF91CF910895CF92B9
:10051000DF92EF92FF920F931F93CF93DF937C01B3
:100520006C0187E0C80ED11CC0E0D0E0062F10E0BF
:10053000B8010C2E02C0759567950A94E2F76170B8
:10054000F60181916F010E948A012196C430D10584
:1005500079F7C701DF91CF911F910F91FF90EF9035
:10056000DF90CF900C947102CF92DF92EF92FF92C6
:100570000F931F93CF93DF93EC01F62E642F8C81A2
:100580000E948A018D818F3F19F060E00E948A01EC
:100590008F850F2D10E084FF25C06E0187E0C80E07
:1005A000D11CE12CF12CB8010E2C02C07595679579
:1005B0000A94E2F76170F60181916F010E948A014D
:1005C000FFEFEF1AFF0A88E0E816F10461F7CE01A9
:1005D000DF91CF911F910F91FF90EF90DF90CF901F
:1005E0000C947102B80184E0759567958A95E1F7DE
:1005F000CE010E9487026F2DCE01DF91CF911F9116
:100600000F91FF90EF90DF90CF900C94870241E024
:100610000E94B40281E090E0089540E00C94B4029E
:10062000EF92FF920F931F93CF93DF93EC01623011
:1006300018F08F8588608F876B8B1C8A80E48D8B88
:1006400080E18E8B80E58F8B61E08C810E94D601EA
:100650008D818F3F19F061E00E94D60161E08E81AB
:100660000E94D6017E0187E0E80EF11C00E010E058
:100670008F8584FD03C084E090E002C088E090E0B4
:10068000081719074CF461E0F70181917F010E947E
:10069000D6010F5F1F4FECCF8BE39DE00197F1F781
:1006A00060E08C810E948A0160E08E810E948A0154
:1006B0008D818F3F19F060E00E948A016F8564FD93
:1006C0001DC063E0CE010E9487020BE416E4C8015E
:1006D0000197F1F763E0CE010E948702C8010197FC
:1006E000F1F763E0CE010E94870283E592E0019773
:1006F000F1F762E0CE010E94870216C06062CE016F
:100700000E940D038BE496E40197F1F76F85606218
:10071000CE010E940D0383E592E00197F1F76F850A
:100720006062CE010E940D036F856062CE010E945F
:100730000D0384E0888B6CE0CE010E940D0361E024
:10074000CE010E940D038BE39FE10197F1F782E058
:10075000898B66E0CE01DF91CF911F910F91FF90C1
:10076000EF900C940D03843008F083E090913D02EB
:10077000891710F08FEF890FE82FF0E0E65DFD4F4D
:10078000648960688AE292E00C940D030E946D0A0D
:100790006115710579F0FB0101900020E9F73197AF
:1007A000AF01461B570BDC01ED91FC910280F381F8
:1007B000E02D099480E090E008954F925F926F924F
:1007C0007F92EF92FF920F931F93CF93DF93CDB75A
:1007D000DEB7A1970FB6F894DEBF0FBECDBF7C0188
:1007E000FA01CB0119A2223008F42AE08E010F5D34
:1007F0001F4F422E512C612C712CBF01A30192017D
:100800000E94EA07F901CA01015011096A3014F483
:10081000605D01C0695CD8016C93232B242B252BD0
:1008200061F7B801C7010E94C803A1960FB6F894FA
:10083000DEBF0FBECDBFDF91CF911F910F91FF9013
:10084000EF907F906F905F904F900895CF92DF92DE
:10085000EF92FF92CF93DF93AB01BC0177FF1DC0F6
:100860006A017B016DE28DE891E00E948C00EC0151
:1008700044275527BA014C195D096E097F092AE002
:100880008DE891E00E94DD038C0F9D1FDF91CF91D9
:10089000FF90EF90DF90CF9008952AE08DE891E0EF
:1008A000DF91CF91FF90EF90DF90CF900C94DD031C
:1008B0001F920F920FB60F9211242F933F934F93D5
:1008C0005F936F937F938F939F93AF93BF93EF93B8
:1008D000FF938DE891E00E94F600FF91EF91BF91A8
:1008E000AF919F918F917F916F915F914F913F91C8
:1008F0002F910F900FBE0F901F9018951F920F927F
:100900000FB60F9211242F938F939F93EF93FF9322
:10091000E0919D01F0919E018081E091A301F09111
:10092000A40182FD12C090818091A6018F5F8F7318
:100930002091A701821751F0E091A601F0E0E35762
:10094000FE4F958F8093A60101C08081FF91EF91AA
:100950009F918F912F910F900FBE0F901F90189520
:100960001F920F920FB60F9211242F933F938F93E4
:100970009F93AF93BF938091710190917201A09169
:100980007301B09174013091700123E0230F2D3772
:1009900020F40196A11DB11D05C026E8230F029683
:1009A000A11DB11D2093700180937101909372017C
:1009B000A0937301B09374018091750190917601B9
:1009C000A0917701B09178010196A11DB11D80938E
:1009D000750190937601A0937701B0937801BF9150
:1009E000AF919F918F913F912F910F900FBE0F90DC
:1009F0001F901895CF92DF92EF92FF920F931F9363
:100A0000E82FF92F05C0015011092109310961F1C1
:100A1000908196239417B9F305C00150110921095B
:100A2000310911F1908196239413F7CFC12CD12C69
:100A3000E12CF12C0AC08FEFC81AD80AE80AF80A8C
:100A40000C151D052E053F0579F08081862384173E
:100A500091F36C2D7D2D8E2D9F2D1F910F91FF9069
:100A6000EF90DF90CF90089560E070E080E090E03C
:100A70001F910F91FF90EF90DF90CF900895EDE8D8
:100A8000F1E01382128288EE93E0A0E0B0E084836C
:100A90009583A683B78384E091E09183808385EC7E
:100AA00090E09587848784EC90E09787868780EC38
:100AB00090E0918B808B81EC90E0938B828B82EC29
:100AC00090E0958B848B86EC90E0978B868B118ED3
:100AD000128E138E148EEAE2F2E01382128284E107
:100AE00091E0918380838CE084838FEF85838BE01A
:100AF000868388E0878387E0808786E0818785E03A
:100B000082871386148615861686178661E0CF01C4
:100B10000C941003789484B5826084BD84B58160A0
:100B200084BD85B5826085BD85B5816085BD8091B8
:100B30006E00816080936E00109281008091810030
:100B40008260809381008091810081608093810028
:100B5000809180008160809380008091B1008460EA
:100B60008093B1008091B00081608093B00080914B
:100B70007A00846080937A0080917A00826080930A
:100B80007A0080917A00816080937A0080917A0067
:100B9000806880937A001092C100E0919D01F091ED
:100BA0009E0182E08083E0919901F0919A01108288
:100BB000E0919B01F0919C018FEC80831092A50144
:100BC000E091A101F091A20186E08083E0919F0174
:100BD000F091A001808180618083E0919F01F0917C
:100BE000A001808188608083E0919F01F091A00145
:100BF000808180688083E0919F01F091A0018081D5
:100C00008F7D808361E089E00E94D60161E084E00D
:100C10000E94D60160E083E00E94D60162E08AE291
:100C200092E00E941003C3E0D0E093E2292E312C21
:100C30002AE3822E912CA12CB12C60E084E00E944A
:100C40008A01CE010197F1F761E084E00E948A01F8
:100C5000C1010197F1F760E084E00E948A01E1EBB5
:100C6000F0E06491EDE9F0E08491E82FF0E0EE0F20
:100C7000FF1FE057FF4F8591949100E412E42FE0AD
:100C800030E0462F0E94FA04611571058105910537
:100C900051F0DC01CB010196A11DB11D6C017D015C
:100CA000FFE0FF2203C0C12CD12C7601C092890144
:100CB000D0928A01E0928B01F0928C01C701B601BB
:100CC00024E930E040E050E00E940C0820938501C8
:100CD000309386014093870150938801C701B60184
:100CE000A50194010E940C08209381013093820198
:100CF00040938301509384012B3031054105510508
:100D00000CF027C121E420937C0080917A0080645C
:100D100080937A0080917A0086FDFCCF6091780004
:100D20008091790070E0782B072E000C880B990BCE
:100D30000E94460920E030E04AEF53E40E94FB099C
:100D400020E030EC4FE754E40E94A30860937D015B
:100D500070937E0180937F0190938001609379016D
:100D600070937A0180937B0190937C0180E00E94D4
:100D7000B30368E171E08AE292E00E94C803C09088
:100D80007901D0907A01E0907B01F0907C01A7017D
:100D90009601C701B6010E94680A882319F06DE127
:100DA00071E01AC026013701E89477F82FEF3FEF82
:100DB0004FE75FE7C301B2010E94680A811111C0C9
:100DC0002FEF3FEF4FE75FE7C301B2010E949E089C
:100DD00018163CF461E271E08AE292E00E94C803D6
:100DE0007DC02FEF3FEF4FE75FE4C701B6010E94E0
:100DF000F60918161CF465E271E0EECF2FEF3FEF15
:100E00004FE75FECC701B6010E949E0887FDF3CF54
:100E100020E030E0A901C701B6010E949E0887FFCB
:100E200009C06DE28AE292E00E948C00F7FAF09429
:100E3000F7F8F0942AE037ED43EA5BE3C701B60127
:100E40000E9432082B013C010E9415096B017C01B4
:100E50000E9444099B01AC01C301B2010E94310808
:100E60002B013C012AE0B701A6018AE292E00E9430
:100E7000DD036EE28AE292E00E948C0020E030E026
:100E800040E251E4C301B2010E94FB096B017C0105
:100E90000E9415092B01612C712C2AE0B301A201DB
:100EA0008AE292E00E94DD03C301B2010E9444097C
:100EB0009B01AC01C701B6010E94310820E030E07F
:100EC00040E251E40E94FB090E941509AB0160E079
:100ED00070E02AE08AE292E00E94DD0381E00E9455
:100EE000B30364E571E08AE292E00E94C80364EF14
:100EF00071E080E090E00E94370220E030E046E1BF
:100F000052E46091790170917A0180917B01909116
:100F10007C010E94F60987FD14C081E00E94B303A2
:100F200069E271E08AE292E00E94C80361E089E030
:100F30000E948A0164EF71E080E090E00E94370235
:100F40001AC060E089E00E948A0181E00E94B30338
:100F500012C080E00E94B3036AE371E08AE292E08B
:100F60000E94C80381E00E94B30361E571E08AE258
:100F700092E00E94C8036091850170918601809182
:100F80008701909188010E94260464E671E08DE853
:100F900091E00E94C803609181017091820180916B
:100FA0008301909184010E94260469E671E08DE836
:100FB00091E00E94C8036CE671E08DE891E00E9428
:100FC000C80364E670E080E090E00E9437020E946F
:100FD000800133CEA1E21A2EAA1BBB1BFD010DC05E
:100FE000AA1FBB1FEE1FFF1FA217B307E407F507D9
:100FF00020F0A21BB30BE40BF50B661F771F881FB5
:10100000991F1A9469F760957095809590959B014A
:10101000AC01BD01CF010895052E97FB1EF400948D
:101020000E94230857FD07D00E94EA0707FC03D05F
:101030004EF40C94230850954095309521953F4FE0
:101040004F4F5F4F089590958095709561957F4FB4
:101050008F4F9F4F0895EE0FFF1F0590F491E02DE5
:1010600009945058BB27AA270E9449080C94BC0930
:101070000E94AE0938F00E94B50920F039F49F3F74
:1010800019F426F40C94AB090EF4E095E7FB0C94EC
:10109000A509E92F0E94CD0958F3BA176207730713
:1010A0008407950720F079F4A6F50C94EF090EF467
:1010B000E0950B2EBA2FA02D0B01B90190010C0168
:1010C000CA01A0011124FF27591B99F0593F50F480
:1010D000503E68F11A16F040A22F232F342F4427D8
:1010E000585FF3CF469537952795A795F0405395D0
:1010F000C9F77EF41F16BA0B620B730B840BBAF0A0
:101100009150A1F0FF0FBB1F661F771F881FC2F70A
:101110000EC0BA0F621F731F841F48F4879577951E
:101120006795B795F7959E3F08F0B0CF9395880FD8
:1011300008F09927EE0F9795879508950E948109E9
:1011400008F481E008950E94B7080C94BC090E943D
:10115000B50958F00E94AE0940F029F45F3F29F02C
:101160000C94A50951110C94F0090C94AB090E9440
:10117000CD0968F39923B1F3552391F3951B550BD2
:10118000BB27AA2762177307840738F09F5F5F4F5A
:10119000220F331F441FAA1FA9F335D00E2E3AF099
:1011A000E0E832D091505040E695001CCAF72BD0B1
:1011B000FE2F29D0660F771F881FBB1F2617370702
:1011C0004807AB07B0E809F0BB0B802DBF01FF2734
:1011D00093585F4F3AF09E3F510578F00C94A50963
:1011E0000C94F0095F3FE4F3983ED4F3869577952D
:1011F0006795B795F7959F5FC9F7880F911D9695ED
:10120000879597F90895E1E0660F771F881FBB1F48
:10121000621773078407BA0720F0621B730B840BF5
:10122000BA0BEE1F88F7E09508950E94D50988F063
:101230009F5798F0B92F9927B751B0F0E1F0660F9A
:10124000771F881F991F1AF0BA95C9F714C0B130DB
:1012500091F00E94EF09B1E008950C94EF09672F17
:10126000782F8827B85F39F0B93FCCF3869577950A
:101270006795B395D9F73EF49095809570956195F3
:101280007F4F8F4F9F4F0895E89409C097FB3EF41E
:1012900090958095709561957F4F8F4F9F4F9923C3
:1012A000A9F0F92F96E9BB279395F6958795779541
:1012B0006795B795F111F8CFFAF4BB0F11F460FF01
:1012C0001BC06F5F7F4F8F4F9F4F16C0882311F059
:1012D00096E911C0772321F09EE8872F762F05C06D
:1012E000662371F096E8862F70E060E02AF09A9508
:1012F000660F771F881FDAF7880F9695879597F9FD
:101300000895990F0008550FAA0BE0E8FEEF161696
:101310001706E807F907C0F012161306E407F507E9
:1013200098F0621B730B840B950B39F40A2661F05D
:10133000232B242B252B21F408950A2609F4A14000
:10134000A6958FEF811D811D089597F99F6780E80D
:1013500070E060E008959FEF80EC089500240A9407
:101360001616170618060906089500240A94121680
:101370001306140605060895092E0394000C11F4B3
:10138000882352F0BB0F40F4BF2B11F460FF04C060
:101390006F5F7F4F8F4F9F4F089557FD9058440FB9
:1013A000551F59F05F3F71F04795880F97FB991FC4
:1013B00061F09F3F79F08795089512161306140681
:1013C000551FF2CF4695F1DF08C01616170618060E
:1013D000991FF1CF86957105610508940895E894E9
:1013E000BB2766277727CB0197F908950E948109CB
:1013F00008F48FEF08950E940E0A0C94BC090E9415
:10140000AE0938F00E94B50920F0952311F00C9434
:10141000A5090C94AB0911240C94F0090E94CD0984
:1014200070F3959FC1F3950F50E0551F629FF00137
:10143000729FBB27F00DB11D639FAA27F00DB11D50
:10144000AA1F649F6627B00DA11D661F829F2227D9
:10145000B00DA11D621F739FB00DA11D621F839F60
:10146000A00D611D221F749F3327A00D611D231F36
:10147000849F600D211D822F762F6A2F11249F5784
:1014800050409AF0F1F088234AF0EE0FFF1FBB1F87
:10149000661F771F881F91505040A9F79E3F510546
:1014A00080F00C94A5090C94F0095F3FE4F3983E9A
:1014B000D4F3869577956795B795F795E7959F5FF0
:1014C000C1F7FE2B880F911D9695879597F9089582
:1014D0000E948109880B990B089581E090E0F894AF
:0814E0000C94720AF894FFCF8E
:1014E8000000000017019300E000BE00D2005E017A
:1014F800000000000703930054203A20006E616E3C
:1015080000696E66006F7666005741524E494E4735
:1015180021204869676820542E00202020202020A0
:1015280020202020202020202020202020202020B3
:10153800004E6F20506572736F6E2044657465634A
:1015480074656400696E2C2000636D000D0A00004C
:00000001FF
